{
  "contractName": "EIP820Registry",
  "abi": [
    {
      "constant": false,
      "inputs": [
        {
          "name": "addr",
          "type": "address"
        },
        {
          "name": "iHash",
          "type": "bytes32"
        },
        {
          "name": "implementer",
          "type": "address"
        }
      ],
      "name": "setInterfaceImplementer",
      "outputs": [],
      "payable": false,
      "stateMutability": "nonpayable",
      "type": "function"
    },
    {
      "constant": true,
      "inputs": [
        {
          "name": "addr",
          "type": "address"
        }
      ],
      "name": "getManager",
      "outputs": [
        {
          "name": "",
          "type": "address"
        }
      ],
      "payable": false,
      "stateMutability": "view",
      "type": "function"
    },
    {
      "constant": false,
      "inputs": [
        {
          "name": "addr",
          "type": "address"
        },
        {
          "name": "newManager",
          "type": "address"
        }
      ],
      "name": "setManager",
      "outputs": [],
      "payable": false,
      "stateMutability": "nonpayable",
      "type": "function"
    },
    {
      "constant": true,
      "inputs": [
        {
          "name": "interfaceName",
          "type": "string"
        }
      ],
      "name": "interfaceHash",
      "outputs": [
        {
          "name": "",
          "type": "bytes32"
        }
      ],
      "payable": false,
      "stateMutability": "pure",
      "type": "function"
    },
    {
      "constant": true,
      "inputs": [
        {
          "name": "addr",
          "type": "address"
        },
        {
          "name": "iHash",
          "type": "bytes32"
        }
      ],
      "name": "getInterfaceImplementer",
      "outputs": [
        {
          "name": "",
          "type": "address"
        }
      ],
      "payable": false,
      "stateMutability": "view",
      "type": "function"
    },
    {
      "anonymous": false,
      "inputs": [
        {
          "indexed": true,
          "name": "addr",
          "type": "address"
        },
        {
          "indexed": true,
          "name": "interfaceHash",
          "type": "bytes32"
        },
        {
          "indexed": true,
          "name": "implementer",
          "type": "address"
        }
      ],
      "name": "InterfaceImplementerSet",
      "type": "event"
    },
    {
      "anonymous": false,
      "inputs": [
        {
          "indexed": true,
          "name": "addr",
          "type": "address"
        },
        {
          "indexed": true,
          "name": "newManager",
          "type": "address"
        }
      ],
      "name": "ManagerChanged",
      "type": "event"
    }
  ],
  "bytecode": "0x6060604052341561000f57600080fd5b61087b8061001e6000396000f30060606040526004361061006d576000357c0100000000000000000000000000000000000000000000000000000000900463ffffffff16806329965a1d146100725780633d584063146100d75780635df8122f1461015057806365ba36c1146101a8578063aabbb8ca14610221575b600080fd5b341561007d57600080fd5b6100d5600480803573ffffffffffffffffffffffffffffffffffffffff169060200190919080356000191690602001909190803573ffffffffffffffffffffffffffffffffffffffff169060200190919050506102a7565b005b34156100e257600080fd5b61010e600480803573ffffffffffffffffffffffffffffffffffffffff16906020019091905050610517565b604051808273ffffffffffffffffffffffffffffffffffffffff1673ffffffffffffffffffffffffffffffffffffffff16815260200191505060405180910390f35b341561015b57600080fd5b6101a6600480803573ffffffffffffffffffffffffffffffffffffffff1690602001909190803573ffffffffffffffffffffffffffffffffffffffff16906020019091905050610606565b005b34156101b357600080fd5b610203600480803590602001908201803590602001908080601f01602080910402602001604051908101604052809392919081815260200183838082843782019150505050505091905050610761565b60405180826000191660001916815260200191505060405180910390f35b341561022c57600080fd5b610265600480803573ffffffffffffffffffffffffffffffffffffffff16906020019091908035600019169060200190919050506107cd565b604051808273ffffffffffffffffffffffffffffffffffffffff1673ffffffffffffffffffffffffffffffffffffffff16815260200191505060405180910390f35b823373ffffffffffffffffffffffffffffffffffffffff166102c882610517565b73ffffffffffffffffffffffffffffffffffffffff161415156102ea57600080fd5b60008273ffffffffffffffffffffffffffffffffffffffff161415801561033d57503373ffffffffffffffffffffffffffffffffffffffff168273ffffffffffffffffffffffffffffffffffffffff1614155b1561041c578173ffffffffffffffffffffffffffffffffffffffff1663f008325085856000604051602001526040518363ffffffff167c0100000000000000000000000000000000000000000000000000000000028152600401808373ffffffffffffffffffffffffffffffffffffffff1673ffffffffffffffffffffffffffffffffffffffff168152602001826000191660001916815260200192505050602060405180830381600087803b15156103f557600080fd5b6102c65a03f1151561040657600080fd5b50505060405180519050151561041b57600080fd5b5b816000808673ffffffffffffffffffffffffffffffffffffffff1673ffffffffffffffffffffffffffffffffffffffff1681526020019081526020016000206000856000191660001916815260200190815260200160002060006101000a81548173ffffffffffffffffffffffffffffffffffffffff021916908373ffffffffffffffffffffffffffffffffffffffff1602179055508173ffffffffffffffffffffffffffffffffffffffff1683600019168573ffffffffffffffffffffffffffffffffffffffff167f93baa6efbd2244243bfee6ce4cfdd1d04fc4c0e9a786abd3a41313bd352db15360405160405180910390a450505050565b600080600160008473ffffffffffffffffffffffffffffffffffffffff1673ffffffffffffffffffffffffffffffffffffffff16815260200190815260200160002060009054906101000a900473ffffffffffffffffffffffffffffffffffffffff1673ffffffffffffffffffffffffffffffffffffffff16141561059e57819050610601565b600160008373ffffffffffffffffffffffffffffffffffffffff1673ffffffffffffffffffffffffffffffffffffffff16815260200190815260200160002060009054906101000a900473ffffffffffffffffffffffffffffffffffffffff1690505b919050565b813373ffffffffffffffffffffffffffffffffffffffff1661062782610517565b73ffffffffffffffffffffffffffffffffffffffff1614151561064957600080fd5b8273ffffffffffffffffffffffffffffffffffffffff168273ffffffffffffffffffffffffffffffffffffffff16146106825781610685565b60005b600160008573ffffffffffffffffffffffffffffffffffffffff1673ffffffffffffffffffffffffffffffffffffffff16815260200190815260200160002060006101000a81548173ffffffffffffffffffffffffffffffffffffffff021916908373ffffffffffffffffffffffffffffffffffffffff1602179055508173ffffffffffffffffffffffffffffffffffffffff168373ffffffffffffffffffffffffffffffffffffffff167f605c2dbf762e5f7d60a546d42e7205dcb1b011ebc62a61736a57c9089d3a435060405160405180910390a3505050565b6000816040518082805190602001908083835b6020831015156107995780518252602082019150602081019050602083039250610774565b6001836020036101000a03801982511681845116808217855250505050505090500191505060405180910390209050919050565b60008060008473ffffffffffffffffffffffffffffffffffffffff1673ffffffffffffffffffffffffffffffffffffffff1681526020019081526020016000206000836000191660001916815260200190815260200160002060009054906101000a900473ffffffffffffffffffffffffffffffffffffffff169050929150505600a165627a7a723058202b18122c246c24cc85506877923acc81917c0c48fe5b128ea12b15eca0e5f8af0029",
  "source": "pragma solidity 0.4.19;\n\ncontract EIP820ImplementerInterface {\n    /// @notice Contracts that implement an interferce in behalf of another contract must return true\n    /// @param addr Address that the contract woll implement the interface in behalf of\n    /// @param interfaceHash keccak256 of the name of the interface\n    /// @return true if the contract can implement the interface represented by\n    ///  `ìnterfaceHash` in behalf of `addr`\n    function canImplementInterfaceForAddress(address addr, bytes32 interfaceHash) view public returns(bool);\n}\n\ncontract EIP820Registry {\n\n    mapping (address => mapping(bytes32 => address)) interfaces;\n    mapping (address => address) managers;\n\n    modifier canManage(address addr) {\n        require(getManager(addr) == msg.sender);\n        _;\n    }\n\n    /// @notice Query the hash of an interface given a name\n    /// @param interfaceName Name of the interfce\n    function interfaceHash(string interfaceName) public pure returns(bytes32) {\n        return keccak256(interfaceName);\n    }\n\n    /// @notice GetManager\n    function getManager(address addr) public view returns(address) {\n        // By default the manager of an address is the same address\n        if (managers[addr] == 0) {\n            return addr;\n        } else {\n            return managers[addr];\n        }\n    }\n\n    /// @notice Sets an external `manager` that will be able to call `setInterfaceImplementer()`\n    ///  on behalf of the address.\n    /// @param addr Address that you are defining the manager for.\n    /// @param newManager The address of the manager for the `addr` that will replace\n    ///  the old one.  Set to 0x0 if you want to remove the manager.\n    function setManager(address addr, address newManager) public canManage(addr) {\n        managers[addr] = newManager == addr ? 0 : newManager;\n        ManagerChanged(addr, newManager);\n    }\n\n    /// @notice Query if an address implements an interface and thru which contract\n    /// @param addr Address that is being queried for the implementation of an interface\n    /// @param iHash SHA3 of the name of the interface as a string\n    ///  Example `web3.utils.sha3('Ierc777`')`\n    /// @return The address of the contract that implements a speficic interface\n    ///  or 0x0 if `addr` does not implement this interface\n    function getInterfaceImplementer(address addr, bytes32 iHash) public constant returns (address) {\n        return interfaces[addr][iHash];\n    }\n\n    /// @notice Sets the contract that will handle a specific interface; only\n    ///  the address itself or a `manager` defined for that address can set it\n    /// @param addr Address that you want to define the interface for\n    /// @param iHash SHA3 of the name of the interface as a string\n    ///  For example `web3.utils.sha3('Ierc777')` for the Ierc777\n    function setInterfaceImplementer(address addr, bytes32 iHash, address implementer) public canManage(addr)  {\n        if ((implementer != 0) && (implementer!=msg.sender)) {\n            require(EIP820ImplementerInterface(implementer).canImplementInterfaceForAddress(addr, iHash));\n        }\n        interfaces[addr][iHash] = implementer;\n        InterfaceImplementerSet(addr, iHash, implementer);\n    }\n\n    event InterfaceImplementerSet(address indexed addr, bytes32 indexed interfaceHash, address indexed implementer);\n    event ManagerChanged(address indexed addr, address indexed newManager);\n}\n",
  "sourcePath": "eip820/contracts/EIP820Registry.sol",
  "compiler": {
    "name": "solc",
    "version": "0.4.19+commit.c4cbbb05.Emscripten.clang"
  },
  "schemaVersion": "1.0.1",
  "updatedAt": "2018-02-13T03:10:37.782Z"
}